:020000040800F2
:10000000180500209D010008A5010008A7010008AF
:10001000A9010008AB010008AD01000800000000C4
:10002000000000000000000000000000AF01000818
:10003000B101000800000000B30100089915000894
:10004000B7010008B7010008B7010008B7010008B0
:10005000B7010008B7010008B7010008B7010008A0
:10006000B7010008B7010008B7010008B701000890
:10007000B7010008B7010008B7010008B701000880
:10008000B7010008B7010008B7010008B701000870
:10009000B7010008B7010008B7010008B701000860
:1000A000B7010008B7010008B7010008B701000850
:1000B000B7010008B7010008B7010008B701000840
:1000C000B7010008B7010008B7010008B701000830
:1000D000B7010008B7010008B7010008B701000820
:1000E000B7010008B7010008B7010008B701000810
:1000F000B70100089D160008B7010008B701000805
:10010000B7010008B7010008B7010008B7010008EF
:10011000B7010008B7010008B7010008B7010008DF
:10012000B7010008B7010008B7010008B7010008CF
:10013000B7010008B7010008B7010008B7010008BF
:10014000B7010008B7010008B7010008B7010008AF
:10015000B7010008B7010008B7010008B70100089F
:10016000B7010008B7010008B7010008B70100088F
:10017000B7010008B7010008B7010008000000003F
:10018000B7010008B7010008DFF80CD000F068F8EC
:1001900000480047ED1B000818050020064880476E
:1001A00006480047FEE7FEE7FEE7FEE7FEE7FEE75C
:1001B000FEE7FEE7FEE7FEE74916000889010008B2
:1001C0002DE9F05F0546002092469B46884606468C
:1001D000814640241BE0284641464746224600F01F
:1001E0002FF853465A46C01A914110D3114618466B
:1001F000224600F016F82D1A67EB01084F462246FA
:100200000120002100F00DF817EB00094E41201EDF
:10021000A4F10104DFDC484631462A464346BDE8E6
:10022000F09F202A04DB203A00FA02F100207047F8
:100230009140C2F1200320FA03F319439040704724
:10024000202A04DB203A21FA02F00021704721FA2B
:1002500002F3D040C2F12002914008431946704792
:10026000064C074D06E0E06840F0010394E8070003
:1002700098471034AC42F6D3FFF78AFF781C000889
:10028000981C0008454910B54A6822F440324A607B
:100290004A6843681A434A6001684A6822F48072D7
:1002A0004A6001684A68036942EA03224A600168B9
:1002B0004A6822F040724A6001684A6883681A43BB
:1002C0004A6001688A6822F400628A6001688A686C
:1002D000C3681A438A60816A6FF07062D142016814
:1002E0008A6822F070628A6001688A680CD0836A2A
:1002F0001A438A6001688A6822F040528A60016865
:100300008A68C36A1A4301E022F040528A60016899
:100310008A6822F002028A6001688A68836942EA78
:1003200043028A60016A002901684A680FD042F4DA
:1003300000624A6001684A6822F460424A600168CB
:100340004A68174C436A04EB43331A4301E022F432
:1003500000624A600168CA6A22F47002CA620168D7
:10036000CA6A838B0F4C04EB03531A43CA620168B9
:100370008A6822F400728A6001688A68036B42EA24
:1003800043228A6001688A6822F480628A60016878
:100390008A68406942EA8020886010BD00230140DD
:1003A00000E0FFFF0000F0FF78B50024009490F813
:1003B0003C20012A19D0012280F83C200A68072538
:1003C0000368092A13D9DE680A3A02EB4202954013
:1003D000AE43DE600A788B680A3A02EB4202934031
:1003E0000268D5682B43D36010E0022078BD1E69F7
:1003F00002EB42029540AE431E610A788B6802EB25
:1004000042029340026815692B4313614A681F2515
:10041000072A13D203685E6B521E02EB82029540DC
:10042000AE435E630A8893B20A79521E02EB8202DF
:1004300093400268556B2B43536327E003680D2AF2
:1004400012D21E6BD21F02EB82029540AE431E6396
:100450000A8893B20A79D21F02EB820293400268A3
:10046000156B2B43136311E0DE6A0D3A02EB820237
:100470009540AE43DE620A8893B20A790D3A02EBE8
:10048000820293400268D56A2B43D362164B0568FB
:10049000144A9D4206D10D68122D03D1556845F4CA
:1004A0008005556005689D4218D10B68102B01D05E
:1004B000112B13D1536843F40003536009681029CA
:1004C0000CD10A490A4A0968B1FBF2F101EB81013A
:1004D000490000E0491E00910029FBD180F83C4012
:1004E000002078BD002301400020014010000020C2
:1004F00040420F0070B504004FF0000603D0206C9E
:10050000002510B107E0012070BD656484F83C50FF
:10051000204600F019F8206CC00610D4206C20F49E
:10052000885040F0020020642046FFF7ABFE65646F
:10053000206C20F0020040F00100206400E0012661
:1005400084F83C50304670BD00B500680C4987B057
:10055000884212D10B480021026842F48072026086
:10056000006800F480700590022000900320CDE91F
:1005700001016946044800F009F807B000BD000019
:100580000020014044380240000002402DE9F84FAD
:10059000DFF88C91002209F1040A0AF1040B4FF0F4
:1005A0000F080BF1040E01260B6896403340B3424E
:1005B00071D14C68022C01D0122C11D1D40800EB5F
:1005C00084073D6A5407E40E08FA04FC25EA0C058A
:1005D000D1F810C00CFA04FC4CEA050CC7F820C096
:1005E00007685400032591F804C0A5400CF0030CE3
:1005F000AF430CFA04FC4CEA070CC0F800C04F688B
:10060000012F05D0022F03D0112F01D0122F11D1AD
:100610008768D1F80CC0AF430CFA04FC4CEA070C15
:10062000C0F808C04768B7430E79C6F30016964075
:100630003E434660C668AE438D68A5403543C560FD
:100640004C68E40065D5374C256845F48045256045
:10065000246822F0030504F480440094324C2E19DF
:10066000D6F808789407250F08FA05F4A7432F4C0D
:10067000A04201D1002424E02D4CA04201D101244C
:100680001FE02C4CA04201D102241AE02A4CA042C7
:1006900002D1032415E03CE0284CA04201D10424FF
:1006A0000FE0274CA04201D105240AE0254CA042CE
:1006B00001D1062405E0244CA04201D1072400E02A
:1006C0000824AC403C43C6F80848D9F800404D46E1
:1006D0004E689C43F60300D51C432C60DAF80040BA
:1006E00055464E689C43B60300D51C432C60DBF88E
:1006F00000405D464E689C43F60200D51C432C60CA
:10070000DEF8004075464E689C43B60200D51C4397
:100710002C60521C102AFFF446AFBDE8F88F000091
:10072000003C0140443802400030014000000240DB
:100730000004024000080240000C02400010024089
:100740000014024000180240001C02400AB18161FE
:1007500070470904FBE7000001488068704700000B
:1007600004000020024881680278114481607047CB
:10077000040000200B4810B5016841F400710160CD
:10078000016841F480610160016841F48071016099
:10079000032000F097F8002000F006F800F024F89D
:1007A000002010BD003C024070B50D4D04464FF4D2
:1007B0007A712878B1FBF0F00A490968B1FBF0F0D2
:1007C00000F017FB48B9102C07D200222146501E1A
:1007D00000F058F800206C6070BD012070BD000072
:1007E00004000020100000201F4808B5016841F4F3
:1007F00080410160006800F4804000901A48001FAA
:10080000016841F080510160006800F08050009064
:10081000072000F057F8002211466FF00B0000F09F
:1008200031F8002211466FF00A0000F02BF8002288
:1008300011466FF0090000F025F800221146501F04
:1008400000F020F800221146101F00F01BF80022D3
:100850001146901E00F016F80022BDE8084011462F
:10086000501E00F00FB800004438024000F01F0294
:10087000012191404009800000F1E020C0F8001102
:1008800070470000F0B40E4B1B68C3F30223C3F1A2
:100890000704042C00D904241D1D072D01D20023B8
:1008A00000E0DB1E012606FA04F56D1E0D409D409A
:1008B0009E40761E164045EA0601F0BC00F05CBE84
:1008C0000CED00E0064A00F0070110684FF6FF0348
:1008D000184040EA012003490843106070470000B7
:1008E0000CED00E00000FA052DE9F0470D4604008C
:1008F00065D0DFF81491D9F80000EFB200F00F00D6
:10090000A84207D289F80070D9F8000000F00F0063
:10091000A84254D120683D4E810712D5400703D527
:10092000306840F4E05030602078000703D530682C
:1009300040F4604030603068A16820F0F000084367
:1009400030602078C0072DD0304960680839012810
:1009500012D0022813D0032811D009688907002972
:100960002DDA316821F0030101433160FFF7F4FE15
:10097000804641F2883A0EE009688903EFE709688A
:100980008901ECE7FFF7E8FEA0EB0801514502D929
:100990000320BDE8F0873068616800F00C00B0EB20
:1009A000810FEFD1D9F80010484601F00F01A9429C
:1009B00007D90770006800F00F00A84201D001209D
:1009C000E7E72078400705D53068E16820F4E0507B
:1009D000084330602078000706D53068216920F48C
:1009E000604040EAC100306000F03CF83168084ADD
:1009F000C1F30311515CC840064908600020FFF7AD
:100A0000D3FE0020C5E70000003C02400838024049
:100A1000601C0008100000200148006870470000BA
:100A2000100000200448054900680968044AC1F321
:100A30008221515CC84070471000002008380240F5
:100A4000701C00080448054900680968044AC1F39D
:100A50004231515CC8407047100000200838024005
:100A6000701C0008154810B5006810F00C011448FF
:100A700013D0431004290FD008290ED10F4C241F86
:100A8000216801F03F022168490207D52068C0F3C0
:100A90008810A0FB030106E0184610BD2168C1F3D1
:100AA0008811A1FB00010023FFF78AFB2168C1F335
:100AB0000141491C4900B0FBF1F010BD083802406B
:100AC0000024F4002DE9F84F040073D02078BD4DC8
:100AD000C00748D0BB4808300168C1F38101012933
:100AE00008D00068C0F3810002280AD1281D0068E0
:100AF000400206D52868800335D560680028E4D018
:100B000031E06068B0F5803F10D0B0F5A02F2868C4
:100B100010D020F480302860286820F480202860DD
:100B20006068A0B1FFF718FE06460CE0286840F4A4
:100B30008030F4E740F480202860F7E7FFF70CFEF0
:100B4000801B642872D828688003F7D50BE0FFF774
:100B500003FE064604E0FFF7FFFD801B6428F1D882
:100B600028688003F7D42078DFF85C9280074FF084
:100B7000000A3ED593480830016811F00C0F09D0E7
:100B80000068C0F3810002280BD18E48001D006868
:100B9000400206D42868800715D5E068012809D1ED
:100BA00011E0E068B8B10120C9F80000FFF7D4FDFA
:100BB000064605E003E1FFF7CFFD801B0228C1D800
:100BC00028688007F7D52868216920F0F80040EAF6
:100BD000C10028600DE0C9F800A0FFF7BDFD064682
:100BE00004E0FFF7B9FD801B02281FD828688007A2
:100BF000F7D42078000722D5724F744960697437A2
:100C000070B101200860FFF7A7FD064604E0FFF77A
:100C1000A3FD801B022809D838688007F7D50EE0AD
:100C2000C1F800A0FFF798FD064605E081E0FFF758
:100C300093FD801B02287CD838688007F7D4207881
:100C4000400769D5DFF87CB14FF000080BF1400B8D
:100C5000DBF80000C0000CD4DBF8001041F080513C
:100C6000CBF80010DBF800004FF0010800F08050D6
:100C70000090574F3868C0050FD4386840F4807032
:100C80003860FFF769FD064604E0FFF765FD801B4D
:100C900002284ED83868C005F7D54A4FA06870378B
:100CA00001280FD00528386810D020F001003860E6
:100CB000386820F004003860A068B0B1FFF74CFD40
:100CC00006460EE0386840F00100F4E740F004000A
:100CD0003860F7E7FFF740FD811B41F28830814221
:100CE00065D838688007F5D50DE0FFF735FD064675
:100CF00006E0FFF731FD811B41F28830814256D872
:100D000038688007F5D4B8F1000F05D0DBF8001083
:100D100021F08051CBF80010A069C8B329490831EF
:100D20000968C1F38101022949D00228504607D041
:100D300000E03CE0C9F86000FFF70EFD044639E032
:100D40004F46C9F86000FFF707FD064604E0FFF7CD
:100D500003FD801B02282AD828688001F7D4D4E933
:100D600007010843A16A1B4A490802EB0141626A74
:100D700041EA8211084394F82C1040EA01611148BD
:100D8000001D016001203866FFF7E6FC044605E01F
:100D900013E0FFF7E1FC001B022808D82868800157
:100DA000F7D50AE0FFF7D8FC001B022802D9032080
:100DB000BDE8F88F28688001F4D40020F8E701200E
:100DC000F6E700000038024000004742800E47422C
:100DD000007000400000FFFF4FF0E0210428086988
:100DE00003D020F004000861704740F00400FAE7E7
:100DF000704710B5401EB0F1807F01D3012010BDB7
:100E00004FF0E02460610F21601700F0B5FB002077
:100E1000A06107202061002010BD10B5FFF7E8FF9A
:100E200010BD7047704730B590F83820012A20D0A7
:100E3000012380F83830022280F839200268546893
:100E400024F070045460026854680D682C435460A8
:100E50000268946824F08004946002689468496889
:100E60000C43946080F83930002180F8381008462F
:100E700030BD022030BD10B5040003D094F8390015
:100E800010B107E0012010BD002084F83800204692
:100E900000F00CF8022084F83900211D206800F0D1
:100EA00003FC012084F83900002010BD08B500685B
:100EB0000B49884212D10B48016841F480710160EE
:100EC0000068002200F48070009011462D20FFF78A
:100ED000D9FCBDE808402D20FFF7C8BC08BD0000C4
:100EE00000200040403802400168CA6842F0010218
:100EF000CA600068016841F001010160002070478C
:100F0000704770B50446006801694FF00005C94399
:100F1000890715D4C168C943890711D4E91E016145
:100F200001202076206880698007204602D0FFF7E4
:100F3000E7FF04E000F0B0F8204600F045F9257620
:100F400020680169C943490717D4C168C9434907E3
:100F500013D46FF0040101610220207620688069BB
:100F600010F4407F204602D0FFF7CAFF04E000F0F3
:100F700093F8204600F028F9257620680169C943D6
:100F8000090716D4C168C943090712D46FF00801D4
:100F90000161042020762068C0698007204602D0C5
:100FA000FFF7AEFF04E000F077F8204600F00CF900
:100FB000257620680169C943C90617D4C168C943A9
:100FC000C90613D46FF01001016108202076206853
:100FD000C06910F4407F204602D0FFF791FF04E083
:100FE00000F05AF8204600F0EFF8257620680169F5
:100FF000C943C90708D1C168C943C90704D1891EBB
:101000000161204600F0FEF820680169C943090625
:1010100009D4C168C943090605D46FF08001016194
:101020002046FFF7FEFE20680169C943490609D43E
:10103000C168C943490605D46FF0400101612046EB
:1010400000F0FCF820680169C94389060BD4C16827
:10105000C943890607D46FF0200101612046BDE82D
:101060007040FFF7DFBE70BD00B50068084985B06D
:1010700088420BD10014009002200021CDE901012B
:10108000CDE9031069460348FFF780FA05B000BDBB
:1010900000080040000C0240704770B5044690F80C
:1010A00038000D4601280DD0012684F83860022052
:1010B00084F8390042B1042A18D0082A2AD00C2A10
:1010C0004DD139E0022070BD206800F059FB206846
:1010D000816941F0080181612068816921F0040182
:1010E0008161206881692A69114311E0206800F05C
:1010F00073FB2068816941F4006181612068816926
:1011000021F480618161206881692A6941EA0221B4
:10111000816124E0206800F091FB2068C16941F002
:101120000801C1612068C16921F00401C161206822
:10113000C1692A69114311E0206800F0AFFB206803
:10114000C16941F40061C1612068C16921F4806115
:10115000C1612068C1692A6941EA0221C16184F83C
:101160003960002084F8380070BD10B5040003D049
:1011700094F8390010B107E0012010BD002084F878
:101180003800204600F00CF8022084F83900211DB8
:10119000206800F089FA012084F83900002010BD91
:1011A00008B500680649884208D10648016841F040
:1011B00004010160006800F00400009008BD000018
:1011C00000080040403802407047000010B5044657
:1011D0000068012200F0C8FA08482168814202D064
:1011E0000748814203D1486C40F4004048642068BD
:1011F000016841F001010160002010BD00000140C4
:101200000004014010B500680A49884211D10A4C17
:10121000608894F90010084480B2608000F0CCFC33
:101220006088632801D9FF2002E0002801D1012055
:10123000207010BD0020004000000020704770B5F5
:10124000040004D094F83900002510B106E0012014
:1012500070BD84F83850204600F022F8242084F82D
:1012600039002068C16821F40051C160204600F0B7
:101270003DFB2068016921F49041016120684169CA
:1012800021F02A0141612068C16841F40051C16028
:10129000E563202084F8390084F83A00002070BD0E
:1012A00000B500680E4987B0884216D10D48016824
:1012B00041F4003101600068694600F40030059097
:1012C0000C20009002200190012002900320039046
:1012D000072004900448FFF759F907B000BD00004B
:1012E0000044004040380240000002407FB51248F0
:1012F0001049002401604FF48031C0E901140461F9
:1013000084610E490462C0E90A140125C460C56104
:1013100045610463FFF7EEF800B1FEE70095CDE903
:10132000015469460448FFF73FF8002800D0FEE763
:101330007FBD000000200140140000200100000FCC
:101340002DE9F04F6D4887B00024016841F010018D
:101350000160016801F010010591016841F004018C
:101360000160016801F004010591016841F080010C
:101370000160016801F080010591016841F00101FF
:101380000160016801F001010591016841F002016D
:101390000160016801F002010591016841F0080156
:1013A00001600068002200F0080005900821544800
:1013B000FFF7CCF9012211465248FFF7C7F94BF26B
:1013C000100A002251465048FFF7C0F908250126AF
:1013D0000095CDE90164694649480394FFF7D6F8C2
:1013E0000096CDE90164694646480394FFF7CEF8BC
:1013F00000950225CDE901540527CDE9034769464B
:101400004048FFF7C3F841480096CDE90104DFF8F2
:1014100000B169465846FFF7B9F810200090CDE9B1
:1014200001544FF00608CDE9034869465846FFF7D6
:10143000ADF8E0200090CDE90154CDE903476946BD
:101440005846FFF7A3F84FF00409CDE90094694628
:1014500030480294FFF79AF868020090CDE90154F1
:10146000CDE9034769462B48FFF790F8CDF800A077
:10147000CDE90164694624480394FFF787F84FF4E7
:10148000A4500090CDE90154CDE9034869461D48B8
:10149000FFF77CF82802CDE900046946584602941B
:1014A000FFF774F84FF4E0500090CDE901540A20A2
:1014B000CDE9034069465846FFF768F82020CDE99A
:1014C0000004694610480294FFF760F84FF410706A
:1014D00000901220CDE90106CDE9034969460D4887
:1014E000FFF754F80C480095CDE90104694604481B
:1014F000FFF74CF807B0BDE8F08F0000303802402D
:101500000010024000080240000C024000001110D0
:1015100000000240000402400000121010B51548FF
:101520008AB01349016053210024C0E901146421E9
:10153000C0E90314FFF719FE00B1FEE7079407A9FD
:101540000C480894FFF76FFC00B1FEE76020CDE97E
:10155000000402940822694606480494FFF79DFDA2
:1015600000B1FEE70348FFF77FFD0AB010BD0000A1
:10157000000800405C0000200907090E002806DA78
:1015800000F00F0000F1E02080F8141D704700F11A
:10159000E02080F80014704710B5FFF7E3F8BDE8CD
:1015A0001040FFF73ABC000030B5254893B0002545
:1015B000016841F080510160006800F08050119096
:1015C0002048016841F4804101600068022400F471
:1015D0008040119001200390102004900094069404
:1015E0000820CDE90750A820CDE9090407200B9079
:1015F0006846FFF767FA00B1FEE70CA90F2081E803
:1016000031004FF4A0500F904FF4805010900521FE
:101610000CA8FFF769F900B1FEE7FFF7FDF94FF4F9
:101620007A71B0FBF1F0FFF7E4FB0420FFF7D4FB85
:1016300000221146501EFFF725F913B030BD0000FF
:1016400040380240007000401048016841F47001C9
:1016500001600F48016841F0010101600C4A00215E
:101660000832116002680B4B1A400260031D0A4ADF
:101670001A60026822F48022026005480C30016082
:1016800002495806803908607047000088ED00E084
:1016900000380240FFFFF6FE103000240148FFF73B
:1016A00030BC000098000020F0B50268234D244EA5
:1016B000244FDFF894C0254B4FF0804EA84209D04C
:1016C000704507D0B04205D0B84203D0604501D084
:1016D000984203D122F070044A682243A8421BD0EA
:1016E000704519D0B04217D0B84215D0604513D01C
:1016F000984211D0164CA0420ED0164CA0420BD0EE
:10170000154CA04208D0154CA04205D0144CA04264
:1017100002D0144CA04203D122F44074CA68224380
:1017200002608A68C2620A688262A84201D0984256
:1017300001D10969016301214161F0BD000001404F
:101740000004004000080040000C0040000401407C
:1017500000400140004401400048014000180040A2
:10176000001C00400020004010B50123046A8B409B
:101770009C430462036A8A401343036210BD000065
:1017800030B5026A22F001020262056A426883698A
:101790000C6823F073031C438B6825F002052B4370
:1017A0000B4DA84202D00B4DA8420BD123F00805E7
:1017B000CB6822F440722B434D6923F00403154398
:1017C0008A692A434260846149684163036230BD8B
:1017D000000001400004014030B5026A22F010020E
:1017E0000262036A426884690D6824F4E64444EAAC
:1017F00005248D6823F0200343EA05130D4DA8420C
:1018000002D00D4DA8420ED1CD6823F0800343EAEB
:1018100005134D6922F4406242EA85028D6923F086
:10182000400342EA85024260846149688163036241
:1018300030BD0000000001400004014030B5026AE4
:1018400022F480720262036A4268C46923F400735E
:1018500024F073050C682C438D6843EA05230D4D75
:10186000A84202D00C4DA8420ED1CD6823F40063EB
:1018700043EA05234D6922F4405242EA05128D697C
:1018800023F4806342EA05124260C4614968C1637F
:10189000036230BD000001400004014030B5026A1F
:1018A00022F480520262036A4268C4690D6824F41B
:1018B000E64444EA05248D6823F4005343EA0533E3
:1018C000084DA84202D0084DA84204D14D6922F427
:1018D000804242EA85124260C46149680164036241
:1018E00030BD000000000140000401402DE9F0413E
:1018F00004460068016921F44052E1681143016126
:101900002068C16849F20C6291432369A268E569C5
:101910001A4363692B431A430A43C2602068416932
:10192000A26921F440710A434261E0696425B0F57F
:10193000004F974A974920684FF032083FD08842BD
:1019400001D090427CD1FFF77DF800EBC00101EBA4
:10195000001061688900B0FBF1F6FFF773F800EB47
:10196000C00101EB001061688900B0FBF1F0B0FB31
:10197000F5F06FF01801484306EB800108EB011009
:10198000B0FBF5F000F0F006FFF75CF800EBC001EB
:1019900001EB001061688900B0FBF1F0B0FBF5F0DD
:1019A00006EB0016FFF74EF800EBC00101EB00104C
:1019B00061688900B0FBF1F7FFF744F8D2E0884294
:1019C00001D090423DD1FFF73DF800EBC00101EBA3
:1019D000001061684900B0FBF1F0B0FBF5F00601C2
:1019E000FFF730F800EBC00101EB0010616849001F
:1019F000B0FBF1F7FFF726F800EBC00101EB001098
:101A000061684900B0FBF1F0B0FBF5F06FF0180130
:101A1000484307EB800108EBC100B0FBF5F000F094
:101A2000F80006EB4006FFF70DF800EBC00101EBF4
:101A3000001061684900B0FBF1F7FFF703F83CE0E4
:101A400055E0FEF7EFFF00EBC00101EB001061680D
:101A50004900B0FBF1F0B0FBF5F00601FEF7E2FF44
:101A600000EBC00101EB001061684900B0FBF1F729
:101A7000FEF7D8FF00EBC00101EB001061684900E0
:101A8000B0FBF1F0B0FBF5F06FF01801484307EB45
:101A9000800108EBC100B0FBF5F000F0F80006EBA8
:101AA0004006FEF7BFFF00EBC00101EB00106168CC
:101AB0004900B0FBF1F7FEF7B5FF00EBC00101EB09
:101AC000001061684900B0FBF1F0B0FBF5F06FF079
:101AD0001801484307EB800108EBC100B0FBF5F0AB
:101AE00000F00700216830448860BDE8F081FEF70F
:101AF00099FF00EBC00101EB001061688900B0FBA9
:101B0000F1F6FEF78FFF00EBC00101EB00106168FA
:101B10008900B0FBF1F0B0FBF5F06FF0180148431D
:101B200006EB800108EB0110B0FBF5F000F0F006C9
:101B3000FEF778FF00EBC00101EB0010616889003F
:101B4000B0FBF1F0B0FBF5F006EB0016FEF76AFF14
:101B500000EBC00101EB001061688900B0FBF1F7F8
:101B6000FEF760FF00EBC00101EB00106168890027
:101B7000B0FBF1F0B0FBF5F06FF01801484307EB54
:101B8000800108EB0110B0FBF5F000F00F00A9E7B1
:101B9000001401400010014002E008C8121F08C1F3
:101BA000002AFAD170477047002001E001C1121FDE
:101BB000002AFBD17047000000B587B06021CDE955
:101BC00000100020029003900490059006900822D7
:101BD00069460548FFF761FA00B1FEE708210248AF
:101BE000FFF7F4FA07B000BD5C000020184901209F
:101BF0000870FEF7BFFDFFF7D7FCFFF7A1FBFFF76B
:101C000075FB154813490024016042F2CF01C0E979
:101C100001140A21C0E90314FFF72DF900B1FEE712
:101C20000D480E493C3001604FF4E131C0E9011428
:101C30000C21C460C0E904418461C461FFF7FFFA6C
:101C400000B1FEE7FFF76AFC0348FFF74DF9FEE736
:101C500000000020002000409800002000440040C8
:101C6000000000000000000001020304060708094C
:101C70000000000001020304981C0008000000207E
:101C800014000000981B0008AC1C00081400002081
:101C900004050000A81B000800000000010000006F
:0C1CA00010000000000000000024F40010
:040000050800018965
:00000001FF
